:020000040800F2
:10000000B82600203102000813210008F31B000865
:10001000112100083B0900085524000800000000D9
:10002000000000000000000000000000990100082E
:100030003F09000800000000DD010008152100084C
:100040004B0200084B0200084B0200084B0200085C
:100050004B0200084B0200084B0200084B0200084C
:100060004B0200084B0200084B0200084B0200083C
:100070004B0200084B0200084B0200084B0200082C
:100080004B0200084B0200084B0200084B0200081C
:100090004B0200084B0200084B0200084B0200080C
:1000A0004B020008912100084B0200084B02000897
:1000B0004B0200084B0200084B0200084B020008EC
:1000C0004B0200084B0200084B0200084B020008DC
:1000D0004B0200083D240008492400084B02000898
:1000E0004B0200084B0200084B02000800F002F827
:1000F00000F042F80AA090E8000C82448344AAF180
:100100000107DA4501D100F037F8AFF2090EBAE87D
:100110000F0013F0010F18BFFB1A43F0010318473B
:10012000B44A0000D44A0000103A24BF78C878C10D
:10013000FAD8520724BF30C830C144BF04680C60ED
:10014000704700000023002400250026103A28BF35
:1001500078C1FBD8520728BF30C148BF0B60704739
:10016000752900F0EF80732900F087830020704725
:100170001FB51FBD10B510BD00F0A5FB1146FFF760
:10018000F7FF02F05BFB00F0C3FB03B4FFF7F2FFE5
:1001900003BC00F0CBFB0000224B19680868B0E8F4
:1001A000F00F80F30988BFF36F8F4FF0000080F3EA
:1001B00011884EF00D0E70470000000006480068E0
:1001C000006880F3088862B661B6BFF34F8FBFF353
:1001D0006F8F00DF00BF00BF08ED00E0EFF3098084
:1001E000BFF36F8F0F4B1A6820E9F00F106008B54E
:1001F0004FF0500080F31188BFF34F8FBFF36F8F24
:1002000003F06CFC4FF0000080F31188BDE808405B
:1002100019680868B0E8F00F80F30988BFF36F8FA2
:10022000704700BF54000020EFF3058070470000C6
:100230000948804709480047FEE7FEE7FEE7FEE77A
:10024000FEE7FEE7FEE7FEE7FEE7FEE704480549B6
:10025000054A064B704700008D210008ED0000089C
:10026000B8200020B8260020B8220020B8220020A4
:100270000FB41CB50C0007AA009001D02044401E0A
:10028000074B7B4469460190069800F0C4FA002CA5
:1002900003D06946002000F0D1FA1CBC5DF814FBC5
:1002A000C105000070B5044685690068C10601D526
:1002B000302600E02026C00707D070BDD4E9012118
:1002C00030469047206A401C20626D1EF6D570BDF6
:1002D00070B5044685690078C00707D170BDD4E9C0
:1002E000012120209047206A401C20626D1EF6D517
:1002F00070BD70B50C460546012A05D028788006E9
:1003000000D5EA69002302E0012305E05B1C93426B
:1003100002D2E05C0028F9D1A869E618C01AA861E9
:10032000286A184428622846FFF7BCFF04E0D5E994
:10033000012114F8010B9047B442F8D32846FFF787
:10034000C7FF70BD2DE9F0410646002410687529ED
:10035000314616A510D0AFF30080002802DA4042E3
:1003600013A507E031688A0701D512A502E0490705
:1003700004D511A5012401E0AFF3008000210A2279
:1003800006F1240709E0B0FBF2FCB0FBF2F302FB3C
:100390001C00303078541846491C0028F3D12346FD
:1003A0002A463046BDE8F04100F0D7B90000000011
:1003B0002D0000002B000000200000002DE9F05F60
:1003C000894604464FF0000ADFF824B1FB44C0F828
:1003D00020A02046E168884700287DD0252806D047
:1003E000D4E901219047206A401C2062F1E70025F2
:1003F0005F462046E16888472028064607DB312E05
:1004000005D2B81910F8200C08B10543F1E7A80788
:1004100001D525F00405C4F81CA00027C4F818A0D5
:100420002A2E09D0304602F026F838B304EB8708AC
:10043000303EC8F8186019E059F8041B204604EB58
:1004400087029161E1688847012F064618D1E0696B
:10045000002820DA25F020051DE0D8F8180000EB70
:10046000800006EB40003038C8F818002046E168EC
:100470008847064601F0FFFF0028EED1012F0AD081
:100480002E2E08D12046E16888477F1C0646022FA1
:1004900045F02005C4DBA069002803DA404245F09E
:1004A0000105A061E80701D025F01005A6B1A6F16D
:1004B0004100192802D8203645F400654A463146E5
:1004C000204625604D46FFF74BFE60B1012807D05E
:1004D000ED1D25F0070000E007E000F1080978E7CE
:1004E00005F1040975E730467AE7206ABDE8F09F18
:1004F0006A470000401ECAB210F8011F8A4202D0AB
:100500000029F9D10020704730B505460B462A4630
:1005100013F8014B12F8010B08B1A042F8D01CB13E
:10052000002802D06D1CF1E7284630BD40EA0103E7
:10053000024630B59B0710D14FF0013400E008C2ED
:1005400008C91D1B9D4315EAC41FF8D013F0FF0115
:1005500002F8011B0DD01B0AF8E711F8013B002B34
:1005600002F8013B05D011F8013B002B02F8013BDA
:10057000F3D130BD10B5431C02E010F8011B71B17E
:100580008107FAD14FF0013202C88C1A8C4314EA69
:10059000C211F9D0C01A0A0603D0C01E10BDC01A7D
:1005A00010BD0A0401D0801E10BD0902FCD0401EFF
:1005B00010BD032A40F2308010F0030C00F01580CB
:1005C00011F8013BBCF1020F624498BF11F801CB56
:1005D00000F8013B38BF11F8013BA2F1040298BFBB
:1005E00000F801CB38BF00F8013B11F0030300F025
:1005F0002580083AC0F0088051F8043B083A51F8C9
:1006000004CBA0E80810F5E7121D5CBF51F8043BCD
:1006100040F8043BAFF30080D20724BF11F8013B40
:1006200011F801CB48BF11F8012B24BF00F8013BA2
:1006300000F801CB48BF00F8012B704710B5203AF5
:10064000C0F00B80B1E81850203AA0E81850B1E88B
:100650001850A0E81850BFF4F5AF5FEA027C24BF41
:10066000B1E81850A0E8185044BF18C918C0BDE838
:1006700010405FEA827C24BF51F8043B40F8043B01
:1006800008BF7047D20728BF31F8023B48BF11F8B6
:10069000012B28BF20F8023B48BF00F8012B704710
:1006A00002F0FF0343EA032242EA024200F0EBB801
:1006B0004FF0000200B5134694469646203922BFFB
:1006C000A0E80C50A0E80C50B1F12001BFF4F7AF46
:1006D000090728BFA0E80C5048BF0CC05DF804EB28
:1006E000890028BF40F8042B08BF704748BF20F896
:1006F000022B11F0804F18BF00F8012B704710B586
:10070000044610F0030F08BF11F0030F40F01580EE
:100710004FF0013E121FC0F20E8051F8043BA3EBD4
:100720000E0C2CEA030C1CEACE1C08BF40F8043B5C
:10073000F0D0A1F1040102F10402521E08DB11F80D
:10074000013B002B00F8013BF7D1114600F099F86E
:10075000204610BD7047704770472DE9F0470D46A1
:1007600099469246044600F124080168880604D59B
:10077000E06921F01001216000E00120A84201DDC4
:10078000471B00E00027A1697A1902EB0900081A4B
:10079000A0612078C00602D42046FFF783FD002622
:1007A00008E0D4E901211AF806009047206A401CAD
:1007B000761C20624E45F4DB2078C0060AD5204620
:1007C000FFF770FD06E0D4E9012130209047206A50
:1007D000401C2062381EA7F10107F4DC07E0D4E9D1
:1007E000012118F805009047206A401C2062281E4D
:1007F000A5F10105F3DC2046FFF76AFD207800062D
:1008000002D50220BDE8F0870120FBE701694A1C00
:1008100002610878704700B58FB0CDE90131002141
:10082000059105497944CDE9031011466846FFF763
:10083000C5FD0FB000BD0000E5FFFFFF0A6802F82C
:10084000010B0A607047D1E900239A4202D2531C7F
:100850000B601070704710B5436913B1AFF300809F
:1008600001E0FFF746FD012010BD127800F12401E0
:100870000A7000224A700122EDE711684FF0FF3242
:10088000E9E74FF000020429C0F0128010F0030CD9
:100890003FF410AFCCF1040CBCF1020F18BF00F80C
:1008A000012BA8BF20F8022BA1EB0C01FFF702BF20
:1008B0005FEAC17C24BF00F8012B00F8012B48BF80
:1008C00000F8012B7047754600F02CF8AE46050085
:1008D0006946534620F00700854618B020B5FFF75B
:1008E000B5FCBDE820404FF000064FF000074FF088
:1008F00000084FF0000B21F00701AC46ACE8C0093E
:10090000ACE8C009ACE8C009ACE8C0098D46704746
:1009100010B50446AFF300802046BDE81040FFF755
:1009200034BC0000004870475820002001491820BE
:10093000ABBEFEE7260002007047FEE77047704737
:1009400072B6FEE710B590F821100022022905D0FA
:100950000421816380F82020012010BD01680B680C
:1009600023F00E030B6001680B6823F001030B609A
:1009700090F84030C46B012101FA03F3636080F802
:10098000211080F82020104610BD000010B590F80E
:1009900021100024022903D00421816301243DE0B9
:1009A00001680A6822F00E020A6001680A6822F0F3
:1009B00001020A601A4A0168914201D1012121E035
:1009C000174A1432914201D110211BE0144A2832F7
:1009D000914201D1891515E0114A3C32914201D171
:1009E00089140FE00E4A5032914202D14FF4803107
:1009F00008E00B4A6432914202D14FF4801101E0C9
:100A00004FF08071064A083A5160012180F82110A8
:100A1000002180F82010416B01B18847204610BDAD
:100A20000800024070B5044600F008F90546601C55
:100A300002D004480078044400F000F9401BA042B2
:100A4000FAD370BD440000202DE9F84FDFF8B891CB
:100A50000024A9F1040B23460F2709F1040AABF186
:100A6000040EC9E00125A5402A40AA427DD1674E67
:100A7000D1F804C0ACEB0608B44532D014DCBCF1AC
:100A8000030F3AD009DCBCF1000F2AD0BCF1010FF2
:100A90001CD0BCF1020F31D11DE0BCF1110F17D0F9
:100AA000BCF1120F2AD119E0B8F5881F19D006DC65
:100AB000B8F5803F15D0B8F5801F1FD111E0B8F50B
:100AC000001F0ED0B8F5041F18D10AE0CB6815E05E
:100AD000CB681B1D12E0CB6808330FE0CB680C33EA
:100AE0000CE08B682BB1012B4FF0080303D045615C
:100AF00004E0042302E0056100E00023FF2A01D89E
:100B0000064601E000F104064FEA840501D9A5F18B
:100B10002005D6F8008007FA05FC28EA0C0803FA3D
:100B200005F548EA0508C6F800804D68ED0062D575
:100B3000374DAE6946F00106AE61AD6924F003069B
:100B400005F001050095334D06EB050CDCF8085067
:100B5000A607360F07FA06F825EA0805DFF8B88079
:100B6000404503D14FF0000817E044E0DFF8AC80C7
:100B7000404502D14FF001080FE0DFF8A480404566
:100B800002D14FF0020808E0DFF89880404502D11A
:100B90004FF0030801E04FF0040808FA06F848EAAD
:100BA0000508CCF808804D68D9F80060ED024D4684
:100BB00001D5164300E096432E604D68DAF80060D8
:100BC000AD02554601D5164300E096432E604D68B0
:100BD000DBF80060AD035D4601D5164300E09643A7
:100BE0002E604D68DEF80060ED03754601D51643B2
:100BF00000E096432E60641C0D682A46E5407FF4B1
:100C000031AFBDE8F88F000008040140000011106A
:100C1000001002400000014000080140000C0140AB
:100C200000100140001401408068084000D00120FD
:100C300070470AB1016170470904FBE70148806809
:100C4000704700004400002070B5040025D094F8DF
:100C50003D00002520B984F83C50204600F04EF9B4
:100C6000242084F83D002068016821F00101016022
:100C70002068016841F4004101602068016821F4A6
:100C80000041016000F0E2FA4D4A6168914201D8EA
:100C90004C4900E04C49884201D2012070BD4B49CB
:100CA0002368B0FBF1F15E6826F03F060E435E60FC
:100CB0006368934206D94FF4967359434FF47A739D
:100CC000B1FBF3F12368491C1E6A26F03F0631434D
:100CD00019626168914210D84900401EB0FBF1F2E0
:100CE000521CC2F30B02042A01D2042022E0B0FB02
:100CF000F1F0401CC0F30B001CE0A268F2B301EB62
:100D0000C10303EB0116431EB3FBF6F35B1C43F474
:100D100080431B0549D092B301EBC10202EB0111E4
:100D2000401EB0FBF1F0401CC0F30B0040F48040CB
:100D300040F400402168CA694CF6FF739A4310439F
:100D4000C861D4E9071001432068026822F0C0029C
:100D500011430160D4E9030101432068826848F22D
:100D6000FF339A4311438160D4E9050108432168A8
:100D7000CA6822F0FF021043C86001E00EE016E0EE
:100D80002068016841F0010101602564202084F899
:100D90003D00256384F83E50002070BD01EB410604
:100DA000431EB3FBF6F35B1CB3E70120C2E701EB84
:100DB0004101401EB0FBF1F0401CC0F30B00B7E74F
:100DC000A086010080841E0000093D0040420F0003
:100DD0002DE9F84F1F4690468A460446DDF82890D4
:100DE000FFF72CFF054694F83D0020287FD11923FA
:100DF000012240492046009500F08EFF002876D160
:100E000094F83C00012872D0012084F83C0020684E
:100E10000168C90703D1016841F001010160206840
:100E2000016821F400610160212084F83D00102058
:100E300084F83E0000262664C4F824806785608D0F
:100E400020852D48E0622B464A465146204600F058
:100E5000E9FE90B9206841698069009036E02A4631
:100E60004946204600F0FEFF50B1206C042804D112
:100E70002068016841F4007101600120BDE8F88F2D
:100E8000606A216800780861606A401C6062618D58
:100E9000491E6185218D491E89B2218522685369C9
:100EA000DB435B070BD451B100781061606A401CD2
:100EB0006062608D401E6085208D401E20852A4620
:100EC0004946204600F0FCFE0028CED1208D0028A7
:100ED000C5D154F83D0B016841F400710160202038
:100EE00004F81E09E67766770020C7E7FFE70220CF
:100EF000C4E70000020010000000FFFF10B586B03C
:100F00000021009101910291039100680F498842EC
:100F10001AD10F4CA06940F00800A061A069694691
:100F200000F008000490C0200090122001900320DF
:100F300003900848FFF788FDE06940F40010E06185
:100F4000E06900F40010049006B010BD00540040A9
:100F500000100240000C01400248816802781144F0
:100F60008160704744000020074810B5016841F0D7
:100F700010010160032000F0A1F80F2000F006F836
:100F800000F04AF8002010BD0020024030B50546B0
:100F90001C4887B0816941F400618161806906A9BC
:100FA00000F40060009001A800F030F900F05EF954
:100FB0001549164AB0FBF1F11548491E026041601F
:100FC00040F2E7320021C0E903218160816100F035
:100FD00015FB040012D10E4800F03EFB04000DD1B9
:100FE000192000F03DF8102D07D2002229461920C3
:100FF00000F044F80748056000E0012407B02046EF
:1010000030BD00000010024040420F00002C0140A3
:10101000E8010020480000200F4808B5816941F030
:1010200001018161816901F001010091C16941F013
:101030008051C161C069002200F0805000900F21F2
:10104000901E00F01BF80548416821F0E06141F076
:101050000071416008BD0000001002400000014026
:10106000002809DB00F01F020121914040098000A7
:1010700000F1E020C0F8001170470000F0B40E4B02
:101080001B680C46C3F30223C3F10705042D00D9E6
:101090000425191D072901D2002300E0DB1E0126CB
:1010A00006FA05F1491E214099409E40761E1640E1
:1010B0003143F0BC01F0CFB90CED00E0064900F07F
:1010C000070208684FF6FF03184040EA0220034A6F
:1010D00010430860704700000CED00E00000FA05C6
:1010E0002DE9F0470F46050061D0434E306800F00F
:1010F0000700B84209D2306820F00700384330605A
:10110000306800F00700B84251D128683B4C810795
:1011100012D5400703D5606840F4E060606028782D
:10112000000703D5606840F4605060606068A9689B
:1011300020F0F000084360602878C00728D0686875
:10114000012810D02168022810D0890700292EDA42
:10115000616821F0030101436160FFF76FFD804684
:1011600041F288390DE021688903EFE78901EDE755
:10117000FFF764FDA0EB0801494502D90320BDE853
:10118000F0876068696800F00C00B0EB810FEFD168
:10119000306800F00700B8420BD9306820F0070033
:1011A00038433060306800F00700B84201D00120B9
:1011B000E5E72878400705D56068E96820F4E06035
:1011C000084360602878000706D56068296920F424
:1011D000605040EAC100606000F058F86168084A59
:1011E000C1F30311515CC840064908600648006815
:1011F000FFF7CCFE0020C2E70020024000100240B2
:10120000224B000850000020480000200F220260FE
:101210000C4A536803F003034360536803F0F00380
:101220008360536803F4E063C36052684FF4E06383
:1012300003EAD20202610448006800F00700086077
:101240007047000000100240002002400448054999
:1012500000684968044AC1F30221515CC8407047E4
:101260005000002000100240324B0008044805499D
:1012700000684968044AC1F3C221515CC840704704
:101280005000002000100240324B00080E4A516806
:101290000E4801F00C03042B11D0082B0FD10C4881
:1012A000C1F38343C903C05C0AD55168084AC1F33E
:1012B0004041921E515C054A5043B0FBF1F070472B
:1012C00004494843704700000010024000127A00B1
:1012D000124B000800093D002DE9F84F040070D0C2
:1012E0002078C04DC00749D06868C0F3810001284C
:1012F00007D06868C0F38100022809D16868C0037C
:1013000006D52868800339D560680028E7D035E025
:101310006068B0F5803F0BD010B1B0F5A02F11D0B0
:10132000286820F480302860286820F4802002E0BB
:10133000286840F480302860606890B1FFF77EFC38
:1013400006460AE0286840F480202860F0E700BFE5
:10135000FFF774FC801B642873D828688003F7D5D6
:101360000CE0FFF76BFC064605E000BFFFF766FCEC
:10137000801B6428F0D828688003F7D420789A4E20
:1013800080074FF001094FF0000839D5686810F068
:101390000C0F07D06868C0F38100022809D1686883
:1013A000C00306D42868800714D52069012808D115
:1013B00010E02069B0B1C6F80090FFF73FFC074687
:1013C00005E00AE1FFF73AFCC01B0228C4D82868F0
:1013D0008007F7D52868616920F0F80040EAC1006D
:1013E00028600DE0C6F80080FFF728FC074604E0FF
:1013F000FFF724FCC01B022823D828688007F7D4F5
:10140000207800072CD57948A169D9B1C0F800909F
:10141000FFF714FC074604E0FFF710FCC01B02288E
:101420000FD8686A8007F7D571484FF4FA51006801
:10143000B0FBF1F0009000BF0098411E0091FAD27D
:101440000EE080E0C0F80080FFF7F8FB074604E0FC
:10145000FFF7F4FBC01B022875D8686A8007F7D431
:101460002078400760D5E8690027C00008D4E86903
:1014700040F08050E861E869012700F0805000905A
:101480005C480168C90513D40168834641F4807142
:101490000160FFF7D3FB824606E000BFFFF7CEFBFB
:1014A000A0EB0A0064284ED8DBF80000C005F5D593
:1014B000E06801280AD008B1052813D0286A20F076
:1014C00001002862286A20F0040002E0286A40F047
:1014D00001002862E06841F2883B98B1FFF7AEFB5B
:1014E00082460BE0286A40F004002862EEE700BF65
:1014F000FFF7A4FBA0EB0A0159455AD8286A8007D8
:10150000F6D50CE0FFF79AFB824605E0FFF796FB65
:10151000A0EB0A0159454CD8286A8007F6D41FB1C0
:10152000E86920F08050E861E06988B36968C1F338
:101530008101022944D00228C6F8608004D0FFF758
:101540007DFB044638E034E0FFF778FB074604E013
:10155000FFF774FBC01B02282BD828688001F7D442
:10156000206AB0F5803F05D16868A16820F400309A
:1015700008436860D4E908010843696821F47411DC
:1015800008436860C6F86090FFF758FB044606E021
:1015900025E000BFFFF752FB001B022809D828688E
:1015A0008001F7D51BE000BFFFF748FB001B0228B6
:1015B00002D90320BDE8F88F28688001F4D40EE03A
:1015C0000128F7D06868226A00F48031914204D182
:1015D000616A00F47010884201D00120EAE700201F
:1015E000E8E700000010024000004242800442424E
:1015F00050000020007000407047704710B5040094
:1016000003D094F83D0010B107E0012010BD002088
:1016100084F83C00204600F01EF8022084F83D00CB
:10162000211D206800F0BAFD012084F8460084F8EE
:101630003E0084F83F0084F8400084F8410084F8BC
:10164000420084F8430084F8440084F8450084F89C
:101650003D00002010BD704790F83D10012901D0D9
:1016600001207047022180F83D100168CA6842F0ED
:101670000102CA6000680B49884208D0B0F1804F6F
:1016800005D00949884202D00849884204D18168BE
:1016900001F00701062903D0016841F00101016052
:1016A00000207047002C014000040040000800406A
:1016B00070472DE9F04104460068C66805694FF09F
:1016C0000007A90713D5B10711D5F91E0161012043
:1016D0002077206880698007204602D0FFF7E8FF66
:1016E00004E000F07EF8204600F07CF827776807D9
:1016F00016D5700714D521686FF004000861022028
:1017000020772068806910F4407F204602D0FFF7E0
:10171000CFFF04E000F065F8204600F063F827777B
:10172000280715D5300713D521686FF00800086128
:10173000042020772068C0698007204602D0FFF788
:10174000B7FF04E000F04DF8204600F04BF8277793
:10175000E80616D5F00614D521686FF01000086170
:10176000082020772068C06910F4407F204602D00E
:10177000FFF79EFF04E000F034F8204600F032F856
:101780002777E80708D0F00706D021686FF001003E
:101790000861204600F028F8280608D5300606D54E
:1017A00021686FF0800008612046FFF725FF68067A
:1017B00008D5700606D521686FF040000861204604
:1017C00000F01CF8A8060AD5B00608D521686FF00D
:1017D000200008612046BDE8F041FFF70EBFBDE8DC
:1017E000F08170477047000000680349884201D1CA
:1017F000FFF7B2BB70470000002C014070477047F4
:1018000070470000F8B5016804460868CA684B696B
:1018100010F00F0F4FF0000559D003F0010602F44D
:101820009077374365D0C10705D0D10503D5616CEA
:1018300041F001016164410705D5D90703D0616C0E
:1018400041F002016164810705D5D90703D0616CBD
:1018500041F004016164010707D502F02001314322
:1018600003D0616C41F008016164616C00293AD0D9
:10187000800604D5900602D5204600F006FD2068BB
:101880004069616CC0F38010090700D460B3204642
:1018900000F0D4FC20684069400621D5206814304F
:1018A00050E8001F21F0400140E80012002AF5D165
:1018B000E06BA8B16D494163E06BFFF767F8002862
:1018C00011D0E06B416B01B0BDE8F04008478306E2
:1018D0000FD593060DD52046BDE8F84000F0D5BCE5
:1018E0002046FFF78DFFF8BD2046FFF789FF6564AE
:1018F000F8BD266B2023012E7CD1C6067AD5D606EC
:1019000078D508684868009048694FF0020640069C
:1019100040D5E16B086840680004000CE8D0A28D57
:101920008242E5D9E085886920282DD020680C30D6
:1019300050E8001F21F4807140E80012002AF5D120
:101940002068143050E8001F21F0010140E8001227
:10195000002AF5D12068143050E8001F21F0400122
:1019600040E80012002AF5D184F84230256320684F
:101970000C3050E8001F21F0100140E80012002A4E
:10198000F5D1E06BFEF7DEFF6663A08DE18D401AB6
:1019900081B22AE0A08DE18D401A81B2E08D00284D
:1019A000A6D00029A4D022680C3252E8000F20F4FF
:1019B000907042E80007002FF5D12068143050E8FD
:1019C000002F22F0010240E80027002FF5D184F813
:1019D0004230256320680C3050E8002F22F01002BE
:1019E00040E80023002BF5D166632046FFF707FF90
:1019F000F8BDFFE705062BD5150629D594F841005B
:101A00002128F5D1A068B0F5805F01D12069B0B17F
:101A1000206A411C2162216800784860E08C401EE9
:101A20000004000CE084E3D12068C16821F080014B
:101A3000C1602068C16841F04001C160D8E7206AF8
:101A40000088C0F308004860206A801C2062E5E737
:101A50004006CDD55006CBD5CA68204622F04002BC
:101A6000CA6084F8413000F0C3F8C1E72D220008B5
:101A700070B5040004D094F84100002510B106E0D0
:101A8000012070BD84F84050204600F023F8242047
:101A900084F841002068C16821F40051C1602046EB
:101AA00000F054FC2068016921F490410161206834
:101AB000416921F02A0141612068C16841F4005167
:101AC000C1606564202084F8410084F842006563A9
:101AD000002070BD70B586B000240094019402947B
:101AE00003942E4E03682E49022003222D4DB3424B
:101AF00026D18B6943F480438B618B6903F4804367
:101B000004938B6943F004038B618969039201F0AC
:101B1000040104910102CDE9001069462846FEF750
:101B200093FF2815CDE90004694628460294FEF784
:101B30008BFF002205212520FFF7A0FA252028E0B1
:101B4000194EB34227D1CB6943F40033CB61CB6943
:101B500003F4003304938B6943F004038B618969B8
:101B6000039201F0040104910421CDE900106946BB
:101B70002846FEF769FF0820CDE90004694628469B
:101B80000294FEF761FF002205212620FFF776FA76
:101B90002620FFF765FA06B070BD0000003801404E
:101BA00000100240000801400044004090F842301C
:101BB000202B01D00220704721B11AB1002303630A
:101BC00000F020BC0120704710B5044607480068AB
:101BD000A04202D1054800F053FD04480C30844275
:101BE00003D1BDE8104002F001B810BD3002002062
:101BF0007047FEE701684A69D24352050FD46FF47B
:101C000080624A61002140F8301F202242738173B4
:101C1000026942F004020261017301207047002052
:101C200070470000F8B50446C06A1E460D461746C8
:101C3000082807D0012805D010F5803F02D0206B7E
:101C4000122804D12068016841F4807101601346B4
:101C500000224FF001112046009600F05DF840B1DF
:101C600020680068C00502D54FF40070206403208E
:101C7000F8BD2069B0F5804F0ED00620216800EA3B
:101C8000D51040F0F000086133463A460B49204633
:101C900000F08AF878B902E005F0FE0000E0E8B252
:101CA00021680861054933463A46891F204600F0FD
:101CB0007BF80028DCD00120F8BD000008000100FE
:101CC00070B516460D4604461EE02046FFF792FF0B
:101CD00008B1012070BD681C16D0FEF7AFFF801B55
:101CE000A84200D885B920684069C04340070BD599
:101CF000002044F8300F20216173A073216941F066
:101D0000200121612073E4E720684069C043400757
:101D1000DBD4002070BD00002DE9F047984617463F
:101D20000D460446C1F30746DDF820902AE000BFC7
:101D3000B8F1FF3F26D0FEF781FFA0EB0901414536
:101D400002D8B8F1000F1DD12068012E16D080698D
:101D500025EA00000004000C12D00020B84211D186
:101D6000002044F8300F20216173A073216941F0F5
:101D70002001216120730120BDE8F0874069E7E779
:101D80000120EBE72068012E0AD0806925EA0000D7
:101D90000004000C06D00020B842C9D00020EBE7B8
:101DA0004069F3E70120F7E72DE9F047984616462A
:101DB0000D4604464FF000094FF0200AC1F30747D3
:101DC00023E020684069C043400515D420680168BD
:101DD00041F40071016021686FF480604861C4F8CB
:101DE000309084F83DA084F83E90216C41F00401CD
:101DF000216484F83C9021E0701C06D0FEF71EFFA1
:101E0000A0EB0800B04203D816B1012F1FD021E08B
:101E10002068012F15D0806925EA00000004000C1D
:101E200018D000BF44F8309F84F80DA084F80E90BD
:101E3000216941F02001216184F80C900120BDE866
:101E4000F087406925EA00000004000CEAD1206810
:101E5000406901E02068806925EA00000004000C68
:101E6000AFD1ECE770B516460D4604461EE020469D
:101E7000FFF7C0FE08B1012070BD681C16D0FEF748
:101E8000DDFE801BA84200D885B920684069C043A8
:101E900000060BD5002044F8300F20216173A07399
:101EA000216941F0200121612073E4E72068406945
:101EB000C0430006DBD4002070BD000010B5012136
:101EC000214A084600F0EAFD204C1F4A0121A0618A
:101ED0001032084600F0E2FD1B4BE061103B00228F
:101EE00001211B4800F06CFE174A6061C43A0021D2
:101EF000184800F01FFE144A2060A03A002116483E
:101F000000F018FE104A60607C3A0021124800F090
:101F100011FE0D4AA060583A0021104800F00AFE58
:101F2000094AE060343A00210D4800F003FE2061C8
:101F30000548203000F007FD20620348303000F0F3
:101F400002FD606210BD0000D04A000804000020BD
:101F50003D09000869350008C9350008C135000889
:101F6000193600082DE9F04F85B000243848009458
:101F7000019402940394816941F0100181618169A7
:101F800001F010010491816941F0200181618169B2
:101F900001F020010491816941F0040181618169AE
:101FA00001F004010491816941F0080181618069B7
:101FB000DFF8A0B000F008004FF4005704900022B2
:101FC00039465846FEF735FEDFF88C900022F221A4
:101FD0004846FEF72EFEDFF884A040F201380022CA
:101FE00041465046FEF725FE02260125009703963E
:101FF000CDE9015469465846FEF726FDF220CDE9A9
:102000000005CDE9024669464846FEF71DFDCDF8BC
:1020100000800396CDE9015469465046FEF714FD51
:10202000CDE90064694650460294FEF70DFD032099
:10203000CDE90240CDE9007569465846FEF704FD3A
:10204000012239465846FEF7F4FD05B0BDE8F08F91
:10205000001002400010014000080140000C014047
:102060000D4810B50B4901600C49416000214FF447
:1020700080428160C0E9031241618161C1610162F6
:10208000FEF7E2FD002803D0BDE81040FEF758BC83
:1020900010BD00000054004094010020A086010003
:1020A0000C4810B50A4901604FF4E131416000214C
:1020B00081600C22C160C0E904128161C161FFF737
:1020C000D7FC002803D0BDE81040FEF739BC10BD96
:1020D000003801403C0200200C4810B50A4901605C
:1020E0004FF4E1314160002181600C22C160C0E900
:1020F00004128161C161FFF7BBFC002803D0BDE879
:102100001040FEF71DBC10BD0044004084020020BA
:10211000FEE7FEE710B54FF0E020006902F08EFA0E
:10212000012803D0BDE8104001F010BF10BD30B54C
:102130008FB028216846FEF7BBFA14210AA8FEF7E3
:10214000B7FA01210804CDE9001000240294022509
:102150000491CDE907504FF4E01009906846FFF76D
:10216000BBF808B172B6FEE70F20CDE90A054FF4BF
:102170008060CDE90C4002210AA80E94FEF7B0FF62
:10218000002801D072B6FEE70FB030BD70470000E6
:102190000148FFF78EBA0000E8010020F0B50268A0
:1021A000194B1A4C1A4D4FF08047984205D0B8424F
:1021B00003D0A04201D0A84203D122F070064A68A1
:1021C0003243984205D0B84203D0A04201D0A84281
:1021D00003D122F44074CA6822434C6922F0800281
:1021E000224302608A68C2620A688262984201D110
:1021F00009690163012141610169C90703D00169CE
:1022000021F001010161F0BD002C014000040040FB
:102210000008004010B501F06FF9002805D0D0E9A2
:102220000021BDE810400846104710BD10B5406AB7
:102230000021C185C184FFF7E3FA10BD01680C31AC
:1022400051E8002F22F4907241E80023002BF5D1D1
:102250000168143151E8002F22F0010241E8002307
:10226000002BF5D1016B012909D101680C3151E82E
:10227000002F22F0100241E80023002BF5D120218D
:1022800080F8421000210163704708B590F84210B1
:10229000222901D0022008BD82684FF480539A425F
:1022A00001D1016921B1816A9A421BD04AB10AE089
:1022B0000268816A5268C2F308020A80816A891C36
:1022C00008E0026972B10268526802F07F020A7087
:1022D000816A491C8162C18D491E0904090CC185AE
:1022E00003D01BE002685268F1E70168CA6822F077
:1022F0002002CA600168CA6822F48072CA6001685C
:102300004A6922F001024A61202180F8421000212E
:102310004163026B012A03D0FFF756FC002008BD81
:10232000016301680C3151E8002F22F0100241E8EE
:102330000023002BF5D101680A68D20602D50A688D
:1023400049680091818DFFF75AFAE7E770B50446B6
:1023500000680169E26821F440511143016121697B
:10236000A0680843616908432168CA6841F20C63A8
:102370009A430243CA6020684169A26921F440710E
:10238000114341611E492068884202D1FEF76EFF69
:1023900001E0FEF75BFF00EBC00101EB001260689B
:1023A00064218000B2FBF0F3B3FBF1F36FF0180689
:1023B0007343B2FBF0F5B2FBF0F605EB8305322375
:1023C00003EB0515B5FBF1F5B6FBF1F605F0F005ED
:1023D00005EB0615B2FBF0F6B2FBF0F0B0FBF1F046
:1023E0006FF01802504306EB800003EB0010B0FBC7
:1023F000F1F0216800F00F002844886070BD0000F3
:102400000038014081628285C28500214164222119
:1024100080F84210016921B10168CA6842F48072F3
:10242000CA6001684A6942F001024A610068C168F5
:1024300041F02001C1600020704700000148FFF713
:10244000E1B900003C0200200148FFF7DBB90000C1
:1024500084020020FEE70907090E002804DB00F1D2
:10246000E02080F80014704700F00F0000F1E02039
:1024700080F8141D704730380A2801D201207047B7
:102480000020704700F00F01000900EB800001EB15
:102490004000C0B270470000012251030148FEF71E
:1024A000C8BB00000010014000224FF40051014859
:1024B000FEF7BFBB00100140012211020148FEF7E8
:1024C000B8BB0000000C014000224FF480710148AD
:1024D000FEF7AFBB000C014008B50020009000BF24
:1024E000401C00903228FADB08BD2DE9F0470400BB
:1024F00036D0802000F036F800F07F05822000F012
:1025000031F80646842000F02DF80746862000F0BA
:1025100029F88146882000F025F880468C2000F0BC
:1025200021F882462846FFF7ADFF20703046FFF7BE
:10253000A9FF607007F03F00FFF7A4FFA0704846B6
:10254000FFF7A0FFE0704046FFF79CFF2071504668
:10255000FFF798FF00F5FA60E0800120BDE8F08702
:102560000020FBE72DE9FF410446FFF795FFFFF749
:10257000B3FF44F0010000F029F80024124F4FF49B
:102580000076019402946946384600960394FEF75B
:102590005BFA0025640831463846FEF745FB012802
:1025A00001D144F08004FFF797FFFFF785FFFFF7A5
:1025B00093FFFFF789FF6D1C082DEBDBFFF774FF1E
:1025C00004B02046BDE8F081000C01402DE9FF4138
:1025D0000546002002904FF400760120CDE900600E
:1025E00002200F4F039069463846FEF72DFA00246B
:1025F000E80705D0012231463846FEF71AFB01E014
:1026000000F008F9FFF768FFFFF756FFFFF764FFD8
:10261000FFF75AFF6D08641C082CE9DBBDE8FF8159
:10262000000C0140F0B5A1B007000CD0124D0026FF
:102630000A296C8809D07F2C1BD20D2903D00F48A2
:102640000155641C6C8021B0F0BD80216846FEF706
:102650002FF87F2C00D37F24224608496846FDF7D7
:10266000A8FF0DF8046000231A466946B86800F018
:10267000E1F96E80E7E7000000000020D4000020B0
:1026800010B504000ED0206800280BD00648017851
:102690002046FFF7C7FF2068BDE81040012202492D
:1026A000FFF784BA10BD000000000020F0B5A1B013
:1026B0001F4614460D4606000CD05DB154B1802172
:1026C0006846FDF7F5FF3B4600226946B06800F01A
:1026D0007FF910B1002021B0F0BD621E6946284686
:1026E000FEF70DF82919002001F8010C0120F2E78E
:1026F00070B5A0B00D4606001CD0DDB18021684643
:10270000FDF7D6FF7D21284600F08CF804460246EE
:1027100029466846FDF74DFF0D200DF80400641CA6
:102720000A200DF80400002369461A46706800F07C
:1027300081F910B1002020B070BD0120FBE700003E
:102740002DE9F04FA5B000283DD0DFF880800024AF
:1027500004F1B000C0B200F0F3FE002000F0F0FE83
:10276000102000F0EDFE802101A8FDF7A1FFD8F8B0
:10277000001001AF802611B30DF184094FF0400A1B
:102780004FF0C80B01E00F2E01D90F2500E03546B0
:102790008DF884A02A46394609F10100FDF709FFAA
:1027A000681C83B2CDF800B021AA7821D8F80000C7
:1027B000FEF70EFB701B06042F44360CE3D1641C9D
:1027C000E4B2082CC4D325B0BDE8F08F340000205B
:1027D00030B591B00C460546402101A8FDF768FFD1
:1027E00004B907A4009405B906A52B4607A2402109
:1027F00001A8FDF73DFD01A8FFF7A2FF11B030BD14
:102800004E2F41002D2D3A2D2D000000257320253F
:102810007300000000224FF400710148FEF709BA6E
:10282000000C01400246002000E0401C884204D217
:10283000002A02D0135C002BF7D17047FEF794FBFF
:10284000FFF775FCFFF78EFBFFF72AFCFFF744FC50
:10285000FFF706FC334E4FF4005500222946304660
:10286000FEF7E7F94FF47A742046FEF7DBF8012211
:1028700029463046FEF7DDF92046FEF7D3F82A4F09
:10288000002202213846FEF7D4F92046FEF7CAF8A6
:10289000012202213846FEF7CCF92046FEF7C2F8A5
:1028A000002204213846FEF7C4F92046FEF7BAF8A4
:1028B000012204213846FEF7BCF92046FEF7B2F8A3
:1028C000B8460024B1464FF4FA77002229464E4616
:1028D0004846FEF7AEF93846FEF7A4F8012229462D
:1028E0003046FEF7A6F93846FEF79CF80022022192
:1028F00046464046FEF79DF93846FEF793F801221A
:1029000002213046FEF795F93846FEF78BF8641C35
:10291000052CDADB00F02EF8FFF7D0FA00F03CF8D7
:10292000FEE70000001001400008014010B5EFF381
:10293000058111B16FF0050403E0002408B101F036
:1029400019F8204610BD10B54FF00001EFF30582D5
:102950006AB948B1D0E902202AB1202807D310462D
:1029600001F08AFA02E010B901F078FA014608464F
:1029700010BD0000EFF3058010B16FF00500704747
:102980000448016811B14FF0FF3070470121016028
:1029900000207047A400002010B5EFF3058010B1AF
:1029A0006FF0050010BD08480168012902D04FF002
:1029B000FF3010BD054A002182F8141D022101607C
:1029C00001F040F8002010BDA40000200BE000E062
:1029D000F8B51D466FF003026FF002064FF00004D9
:1029E000EFF30583A3B1F0B1E9B1E5B9002200929C
:1029F0006A4601F043FD012817D10098B0B10C4997
:102A00004FF080500860BFF34F8FBFF36F8F0DE022
:102A100048B141B12A4601F095FC012806D025B104
:102A20006FF0010402E0144600E034462046F8BD91
:102A300004ED00E0F8B51D466FF003026FF00206EA
:102A40004FF00004EFF30583ABB100B3F9B1F5B972
:102A50000022134600926A4601F014FC012818D1A6
:102A60000098B8B10C494FF080500860BFF34F8F09
:102A7000BFF36F8F0EE050B149B100232A4601F039
:102A800051FB012806D025B16FF0010402E0144685
:102A900000E034462046F8BD04ED00E0F8B51446E9
:102AA00003460E464FF00005EFF3058098BB93B345
:102AB0009E423DD84CB1A0680028E06803D0502861
:102AC00036D3012002E008B132E00020012B05D00E
:102AD00010B31846A26801F06CFA20E040B1032060
:102AE0000090002211460120A36801F0A3FA04E03F
:102AF00003220021012001F07CFA050018D086B1E4
:102B000000231A46194601F00DFB012809D028467A
:102B100000F0E2FE00250BE0184601F02DFA05005A
:102B200006D00CB1216800E00021284600F0C0FE6C
:102B30002846F8BD2DE9FF414FEA01034FF000059B
:102B4000EFF30581039549BB40B38027182100248A
:102B50004AB3166806B1344696691EB13146761EF0
:102B6000382E02D21679F60703D0002004B0BDE853
:102B7000F081566906B1B708D2F808C0BCF1000F61
:102B80000DD0D5685C2D18D312693AB136B18DE8F5
:102B900006103A46214601F026FD03900DE0D66866
:102BA0005EB912694AB903AACDE90012BAB2214648
:102BB00001F0ECFC012800D003950398D6E7000053
:102BC0002DE9FC471C469046894607464FF0000613
:102BD000EFF3058058BB57B3082000F01FFC050039
:102BE00025D0C5E90078B9F1000F12D00122114BB0
:102BF000002094B1216801B10846A16859B1E46888
:102C00002C2C11D3CDE900312B46012101F082FE9D
:102C100008E00022EBE7E16831B900932B4601217F
:102C200001F05EFE060002D1284600F0D3FD3046DA
:102C3000BDE8FC87152200082DE9F041134C0F4632
:102C40000546E6682068001D00F034FD681C07D1C9
:102C500037B12168BDE8F0410D48091D00F07ABD8B
:102C600020683544B5424560216805D2A06BBDE8B7
:102C7000F041091D00F056BD606B091D00F052FDCA
:102C8000A06A854200D2A562BDE8F0815400002010
:102C9000740800202DE9F041054600F067FD2D4C39
:102CA000A068401CA06020682B4F10B1606930B351
:102CB0002BE02560A068012827D1002606EB8600BE
:102CC00007EB800000F020FD761C382EF6D3234859
:102CD00000F01AFD2148143000F016FD1F4828307E
:102CE00000F012FD1D483C3000F00EFD1B48503036
:102CF00000F00AFD194860631430A06305E0206805
:102D0000E96AC06A884200D82560606A401C606237
:102D10006864E86A2169884200D9206100EB80007C
:102D200007EB8000291D00F015FD00F03FFD6069F4
:102D300000280CD02068E96AC06A884207D2084996
:102D40004FF080500860BFF34F8FBFF36F8FBDE827
:102D5000F081000054000020C4030020240800205B
:102D600004ED00E038B500F001FD104C2068C8B952
:102D70000F4800F0C9FC0E48143000F0C5FC0C48A8
:102D8000E060143020610A4B0020F03B009003F11A
:102D9000500210210A2001F04DF9206010B105A168
:102DA00000F086FDBDE8384000F000BD9000002036
:102DB00078090020546D72510000000030B4026C9C
:102DC0000B46002A0BD0C1681144C1608468A1423F
:102DD00001D30168C16030BC1846FDF7EABB30BCC6
:102DE00070472DE9F041856B174604460026026CBA
:102DF00082B1C7B1E068FDF7DCFBE168206C091A1D
:102E0000E1602268914202D2A168081AE060022FB4
:102E100016D017E02068A8B9A06801F087FC064624
:102E20000020A0600EE06068FDF7C3FB216C6068C5
:102E300008446060A168884204D32068606001E0B3
:102E400005B16D1E6D1CA5633046BDE8F08110B55F
:102E5000044690F8590058B101280CD002280FD030
:102E6000502080F31188BFF34F8FBFF36F8FFEE7C1
:102E7000206B00F0AFFC2046BDE8104000F0AABC7B
:102E800010BD000010484FF48051420706D0C01D0D
:102E90000D4920F00700411AC1F580510B4A00236B
:102EA0000144C2E900030839183A21F00701116012
:102EB0004B600B600B1AC0E9001393604FF00040A9
:102EC000536050617047000058100020C00000207F
:102ED000144E154CA6F29C474FF08058DFF84C90EA
:102EE00012E000BF00F042FCF068C568281D00F049
:102EF000E1FBA068401EA0606068401E606000F0BA
:102F000055FC2846FFF7A3FF60680028EAD138681F
:102F10000128F9D9C9F80080BFF34F8FBFF36F8F35
:102F2000F2E70000600800205400002004ED00E0FB
:102F300070B51D46049C51B1C4F80020C4E90F01CE
:102F40000121204601F0AAF884F84C5070BD24609D
:102F5000F4E700002DE9F05F8846DDE90B941546A3
:102F6000834691009A460A9EA522206BFDF798FBA6
:102F70006FF00301206B01EB8501084420F0070787
:102F8000780707D0502080F31188BFF34F8FBFF32D
:102F90006F8FFEE70025B8F1000F0FD05FF0000043
:102FA000221818F8001082F8341018F8001011B127
:102FB000401C1028F4D384F8435001E084F83450C6
:102FC000382E00D33726E662C4E91365201D00F0D1
:102FD000A6FB04F1180000F0A2FB2461C6F1380042
:102FE0006462A061656584F8585052465946384677
:102FF00000F094FA2060B9F1000F01D0C9F8004048
:10300000BDE8F09F2DE9F0471E46DDE9089417461C
:103010000D00804615D0002C11D0FFF7A3FE04F15F
:103020001801C4F8008081E86002201D00F077FBE1
:10303000002F04D014F8280F40F004002070BDE8E1
:10304000F087502080F31188BFF34F8FBFF36F8F4D
:10305000FEE7000030B5114900E011460A688242DF
:10306000FBD34B685C18844203D140681844486025
:10307000084643681C18944209D1084C183C24683F
:10308000A24209D052681A4442600A68126802607B
:10309000814200D0086030BD0460F9E7C000002024
:1030A00070B5002441600B4D0061914206D8D11AE1
:1030B0008269914206D2011D286907E09A4203D233
:1030C000994201D3012403E0011DE86800F02AFBC6
:1030D000204670BD9000002010B5044600F046FB6D
:1030E000A06B28B15FF0000400F060FB204610BD2B
:1030F0000124F9E730B589B03C4D6EE00498002812
:1031000006DADDE90601059A90470498002864DB99
:10311000069C606910B1201D00F0CCFA03A800F0F5
:10312000D7F8024604980A2857D2DFE800F00505D0
:10313000052D334A05052D3394F8280040F0010091
:1031400084F828000599A069059B01442046FFF7F3
:10315000A7FF68B3216A2046884794F828004007F3
:103160003BD5002000900598A1690023421819461C
:10317000204601F017FCD8B9502080F31188BFF326
:103180004F8FBFF36F8FFEE714F8280F20F0010078
:10319000207022E094F8280040F0010084F8280014
:1031A0000598A06128B1811813462046FFF778FFE3
:1031B00013E0502080F31188BFF34F8FBFF36F8F60
:1031C000FEE794F82800810703D4204600F002FBB4
:1031D00003E020F0010084F82800002204A92868F8
:1031E00001F0B0F8002889D109B030BD900000206E
:1031F0002DE9FC410F46054600F068FC01A800F0EF
:1032000067F80446019818B101F008FBBDE8FC819D
:10321000254EAFB130690068D0B30027291B3A466C
:10322000306800F085FB01F0F9FA0028EED11F4963
:103230004FF080500860BFF34F8FBFF36F8FE5E70B
:10324000A542EBD801F0EAFAF0682746C068C468E6
:10325000201D00F02FFA94F82800410719D5A06925
:103260002B4641193A462046FFF71AFFA8B1002025
:103270000346014600902A46204601F093FB60B9C0
:10328000502080F31188BFF34F8FBFF36F8FFEE79D
:1032900007E020F0010084F82800216A20468847D2
:1032A000B4E70127BAE700009000002004ED00E039
:1032B0000648416B096829B1416BC968C96849680A
:1032C000816270474FF0FF31FAE7000054000020A0
:1032D00070B5054601F0C0F9064E0446B068844258
:1032E00003D200F009F8012000E000202860204609
:1032F000B46070BD90000020F8B5194D20E0C068A2
:10330000C4680668201D00F0D5F9216A2046884768
:1033100094F82800400713D5A0693044B04206D97C
:1033200024616060211DE86800F0FCF908E00020DD
:103330000346014600903246204601F033FB38B187
:10334000E86801680029DAD12969C5E90310F8BDE8
:10335000502080F31188BFF34F8FBFF36F8FFEE7CC
:103360009000002008484068401C4FF0500080F357
:10337000118804D0BFF34F8FBFF36F8FFEE7BFF309
:103380004F8FBFF36F8FFEE7C8000020074CE06847
:10339000016841B1C0680021D0F80000FFF728FFA4
:1033A000FFF7A8FEF3E701210020F7E790000020D7
:1033B0002DE9F041044600F0D9F994F9455004F1A3
:1033C000240609E0606A48B1304601F0EFF908B11F
:1033D00000F0FEFA6D1E6DB2002DF3DC4FF0FF36EB
:1033E00084F8456000F0E2F900F0C0F994F9445027
:1033F00004F1100709E0206948B1384601F0D6F918
:1034000008B100F0E5FA6D1E6DB2002DF3DC84F812
:103410004460BDE8F04100F0C9B900002DE9F04179
:103420000546002700F052FB324E306808B9FFF71E
:1034300029FD706905424ED1C5B3083568070ED025
:1034400005F00700C0F108000544680707D05020C8
:1034500080F31188BFF34F8FBFF36F8FFEE72DB35B
:103460007068854237D82348183001460C6801E05F
:1034700020460C466168A94202D221680029F7D192
:1034800031688C4227D0076821680160606808377E
:10349000411B10290FD96019420708D0502080F332
:1034A0001188BFF34F8FBFF36F8FFEE713E04160CA
:1034B0006560FFF7CFFD61687068401A7060B268A0
:1034C000904200D2B060706901430020C4E900015D
:1034D000F068401CF06001F0A1F9780707D0502097
:1034E00080F31188BFF34F8FBFF36F8FFEE738462D
:1034F000BDE8F081A800002010B5040006D000F05F
:1035000035F9E46900F052F9204610BD502080F3EF
:103510001188BFF34F8FBFF36F8FFEE710B5031F06
:103520004FF080741C601B1F21F001011960191FEE
:10353000024B0B60143940380A6010BD6533000837
:103540001CB501460748006800280AD000220192F5
:103550008DF8051064210091022301AA7821FDF75E
:1035600037FC1CBD34000020134C144F4FF40056A0
:103570004FF4FA75002231462046FDF75AFB2846E3
:10358000FFF7D4F9012231462046FDF752FB2846C9
:10359000FFF7CCF9002202213846FDF74AFB284606
:1035A000FFF7C4F9012202213846FDF742FB284605
:1035B000FFF7BCF9DEE70000001001400008014001
:1035C0000120FFF7B3F9FBE788B04FF47A7401A844
:1035D000FEF78BFF60B19DF8050000909DF8063066
:1035E00007A2102103A8FCF743FE08A103A801E0ED
:1035F00006A107A0FFF7ECF82046FFF797F9E6E7EA
:10360000253032753A253032750000004E2F4100CA
:103610002D2D3A2D2D00000098B000F047F80446FB
:1036200041F288354EF660262946204600F004FB1C
:1036300048B3082315AA202107A800F02DFB00207D
:10364000039004900590069001A8FEF74EFF50B13C
:103650009DF8050000909DF806300DA2102103A8EA
:10366000FCF706FE03E00DA103A8FCF75FFF15A819
:10367000009007AB0BA218210FA8FCF7F9FD0FA9CA
:1036800003A8FFF7A5F83046FFF750F9CCE7000094
:10369000253032753A253032750000002D2D3A2D37
:1036A0002D0000002573202573430000004870475B
:1036B00030020020D0E9013201699A60D0E901238B
:1036C0005A604A68824201D182684A6000220261DF
:1036D0000868401E0860086870470000034B0360DC
:1036E00003F15C000860802010607047A009002092
:1036F000044B036003F15C0008604FF480701060BD
:1037000070470000FC0B002000F108014FF0FF3271
:10371000C0E90112C1600161002101607047002110
:103720000161704730B50B685A1C02D000F10802E5
:1037300002E0026904E02246546825689D42FAD9F5
:1037400053684B6099608A60516008610168491C48
:10375000016030BD42684A6093688B60936859602D
:10376000916008610168491C01607047502080F336
:103770001188BFF34F8FBFF36F8F0A494868401C11
:10378000486001280CD10848006810F0FF0F07D0EE
:10379000502080F31188BFF34F8FBFF36F8FFEE788
:1037A00070470000C800002004ED00E008494868A8
:1037B00028B1401E486001D180F311887047502025
:1037C00080F31188BFF34F8FBFF36F8FFEE70000C8
:1037D000C800002070B500282AD0164DA0F10804BA
:1037E00060686969084207D1502080F31188BFF3EF
:1037F0004F8FBFF36F8FFEE722683AB1502080F3FE
:103800001188BFF34F8FBFF36F8FFEE7884360606F
:1038100000F05CF960686968084468602046FFF75A
:1038200019FC2869401C2861BDE8704000F0F6BF13
:1038300070BD0000A80000204FF0E02000210161D1
:10384000816105494FF47A720968B1FBF2F1491EB2
:1038500041610721016170475000002010B5FCF75D
:10386000E3FC114910280ED300F1E02090F8F0039A
:103870000A78904207D2502080F31188BFF34F8F0F
:10388000BFF36F8FFEE709480068896800F4E060C5
:10389000884207D9502080F31188BFF34F8FBFF3C0
:1038A0006F8FFEE710BD0000C80000200CED00E0A7
:1038B00010B5084B002200BF53F832401CB1521C17
:1038C000082AF9D310BD43F8321003EBC201486057
:1038D00010BD00008403002010B504000AD000F0E1
:1038E00013F894F8460000280CD12046BDE810409B
:1038F000FFF770BF502080F31188BFF34F8FBFF3E5
:103900006F8FFEE710BD0000084A002102EBC103E3
:103910005B68834206D1002042F8310002EBC1010E
:1039200048607047491C0829F0D370478403002081
:1039300070B515460E460446FFF718FF94F944107B
:103940000020491C01D184F8440094F94510491C19
:1039500001D184F84500FFF729FFA06B28B92A465A
:10396000314604F1240000F051F82046BDE87040D3
:10397000FFF71EBD10B5020014D00F48006B38B120
:10398000502080F31188BFF34F8FBFF36F8FFEE796
:1039900000F09CF800211046FFF74EF900F03EFFC2
:1039A000002807D105494FF080500860BFF34F8FC2
:1039B000BFF36F8F10BD00005400002004ED00E045
:1039C00002490A6A0260C9684160704754000020D9
:1039D00001490120C86170475400002010B50C4611
:1039E00050B1094909681831FFF79CFE2046BDE82F
:1039F00010400121FFF720B9502080F31188BFF358
:103A00004F8FBFF36F8FFEE75400002070B5144650
:103A10000D4668B10A4909681831FFF79BFE0CB1E1
:103A20004FF0FF3521462846BDE87040FFF704B946
:103A3000502080F31188BFF34F8FBFF36F8FFEE7E5
:103A40005400002030B587B00024039405AA04A9CF
:103A500003A80494FFF742FEDDE903010094CDE9D9
:103A60000110002315A11748059A00F0BCFD164D62
:103A70000028E8621FD000F065FF012809D0401C33
:103A800019D1502080F31188BFF34F8FBFF36F8F90
:103A9000FEE7502080F31188BFF34F8FBFF36F8F85
:103AA0004FF0FF30A86201206861EC6007B0BDE80C
:103AB000304000F0F7B907B030BD000049444C4534
:103AC00000000000D12E0008540000200248016BC5
:103AD000491C01637047000054000020164810B5CF
:103AE000016B11B10121C16110BD0021C1610169EA
:103AF000124A01E0B9B1491E01EB810352F82330AB
:103B0000002BF7D001EB810302EB830202F10804E2
:103B100053685B685360A34201D15B685360DA6805
:103B20000260016110BD502080F31188BFF34F8FF8
:103B3000BFF36F8FFEE7000054000020C403002095
:103B400038B5050036D01C4C6068002832D0002003
:103B50008DF8000019A12846FCF7D6FC20B919A160
:103B60002846FCF7D1FC08B101200AE017A128463D
:103B7000FCF7CAFC20B917A12846FCF7C5FC18B110
:103B800002208DF800000FE014A12846FCF7BCFCD1
:103B900020B914A12846FCF7B7FC08B10320F0E7D0
:103BA0009DF80000002805D000231A466946606889
:103BB000FEF740FF38BD000038000020E697B6E968
:103BC00097B4000074696D6500000000E5A4A9E6E3
:103BD000B09400007765617468657200E588B7E6A7
:103BE00096B00000726566726573680070B5104C1F
:103BF000A06800281AD02046217800250D4A408868
:103C00000A2907D00D290AD03F2807D21154401C99
:103C1000608004E015540748FFF792FF6580A068B4
:103C2000BDE8704001220249FDF7C0BF70BD000031
:103C3000380000204403002030B505460B480C46F0
:103C4000A9B0002101700A480AA201700748A0210A
:103C50004038A0F11803009001A8FCF709FB2246A8
:103C600001A9284600F03CF829B030BD240300200B
:103C70002C0000202F76372F776561746865722FCE
:103C80006E6F773F6C6F636174696F6E3D2573264D
:103C90006B65793D257300002DE9F0411C46164601
:103CA0000D4607004FF0000807D035B16A1E0A49DB
:103CB000FCF725FD791901F8018C002E09D0002CA4
:103CC00007D0621E05493046FCF719FD311901F88D
:103CD000018CBDE8F0810000240300202C000020AE
:103CE00070B5F0B014460D4606002BD0002D29D03B
:103CF00032A1FEF7FDFC4FF47A73A02269463046EC
:103D0000FEF7D4FC2B4637A24FF4807128A8FCF7AD
:103D1000AFFA28A8FCF72EFC034642A2202168A88F
:103D2000FCF7A6FA68A93046FEF7E2FCC823A022F9
:103D300069463046FEF7BAFC28A93046FEF7D8FCA3
:103D4000002533E0002070B070BDC823A022694672
:103D50003046FEF7ABFC30B336A16846FCF7D4FB27
:103D600030BB36A16846FCF7CFFB58B100F1080123
:103D700007223548FCF7C3FC22213348FCF7BAFB85
:103D800000B1057031A16846FCF7BEFB58B100F1E7
:103D900008011F223048FCF7B2FC22212E48FCF714
:103DA000A9FB00B10570C82C02D3C83C002CCCD1B3
:103DB000294800780028C6D00120C4E741542B438D
:103DC000495053544152543D22544350222C2261B5
:103DD00070692E71776561746865722E636F6D22EC
:103DE0002C38300047455420257320485454502F18
:103DF000312E310D0A486F73743A206170692E714B
:103E0000776561746865722E636F6D0D0A436F6E1E
:103E10006E656374696F6E3A20636C6F73650D0A2B
:103E20000D0A000041542B43495053454E44455818
:103E30003D257500434C4F53454400002274656D89
:103E400070223A22000000002C00002022746578C5
:103E500074223A22000000002403002070B52020C4
:103E6000FFF7DCFA040005D00025201D2560FFF7D0
:103E70004BFC2577204670BD38B558B1202104464B
:103E8000002000912060201DFFF73EFC01202077DC
:103E9000204638BD502080F31188BFF34F8FBFF309
:103EA0006F8FFEE71CB5264908780190FF20087047
:103EB00008788DF800009DF800009DF8002000F0C3
:103EC000F000904207D0502080F31188BFF34F8F4D
:103ED000BFF36F8FFEE79DF800001A4C00F0500012
:103EE00020700720A06005E09DF8002052008DF8AA
:103EF0000020401E9DF800201206F5D4A060032883
:103F000007D0502080F31188BFF34F8FBFF36F8F1E
:103F1000FEE74FF44070A060019808700A480168FD
:103F200041F470010160016841F070410160FFF7E8
:103F300083FC00206060FCF741F900201CBD0000FC
:103F400000E400E0C800002020ED00E010B55020A3
:103F500080F31188BFF34F8FBFF36F8F00F082FBA8
:103F600018B104494FF080500860002080F3118898
:103F700010BD000004ED00E010B50C4648B18442CD
:103F80000FD9502080F31188BFF34F8FBFF36F8F8D
:103F9000FEE7502080F31188BFF34F8FBFF36F8F80
:103FA000FEE70222002100F024F8002800D08463FC
:103FB00010BD38B50C4648B184420FD9502080F36B
:103FC0001188BFF34F8FBFF36F8FFEE7502080F350
:103FD0001188BFF34F8FBFF36F8FFEE702211346A7
:103FE00000220091114600F025F8002800D08463DB
:103FF00038BDF8B517460E46050013D005FB06F090
:104000005030FFF70BFA04000AD0002084F8460075
:1040100004F150023B46314628460094FEF788FFE3
:104020002046F8BD502080F31188BFF34F8FBFF3B7
:104030006F8FFEE738B5049D18B153B1CAB181B195
:1040400020E0502080F31188BFF34F8FBFF36F8FB4
:10405000FEE7502080F31188BFF34F8FBFF36F8FBF
:10406000FEE7502080F31188BFF34F8FBFF36F8FAF
:10407000FEE739B1502080F31188BFF34F8FBFF3B3
:104080006F8FFEE750241C46012384F846302B46F0
:104090000094FEF74DFF204638BD000070B50D4678
:1040A000040025D0FFF762FBD4E90F20216802FB52
:1040B0000011A1600021A163216861600A46D4E972
:1040C0000F01401E00FB0121E16021464FF0FF304F
:1040D00001F8440F487004F110008DB1FFF714FB94
:1040E00004F12400FFF710FBFFF760FB012070BD17
:1040F000502080F31188BFF34F8FBFF36F8FFEE71F
:1041000021690029F0D000F051FB0028ECD00449CF
:104110004FF080500860BFF34F8FBFF36F8FE3E71E
:1041200004ED00E02DE9FF4782B01D468A464FF0BE
:104130000008040003D0BAF1000F08D011E05020AD
:1041400080F31188BFF34F8FBFF36F8FFEE7206CB2
:1041500038B1502080F31188BFF34F8FBFF36F8FBA
:10416000FEE7022D0AD1E06B012807D0502080F332
:104170001188BFF34F8FBFF36F8FFEE700F05EFA39
:104180003F4F4FF000094FF0805648B9049838B1BE
:10419000502080F31188BFF34F8FBFF36F8FFEE77E
:1041A000FFF7E4FAA06BE16B884207D3022D05D03C
:1041B0000498D0B1B8F1000F1AD01EE02A4651463B
:1041C0002046FEF70EFE616A19B104F1240000F0EA
:1041D000EDFA20B13E60BFF34F8FBFF36F8FFFF753
:1041E000E5FA012006B0BDE8F087FFF7DFFA22E02C
:1041F0006846FFF7E5FB4FF00108FFF7D7FAFFF736
:1042000065FCFFF7B3FA94F94400401C01D184F82F
:10421000449094F94500401C01D184F84590FFF783
:10422000C5FA04A9684600F077F930B12046FFF7D7
:10423000BFF800F0F3FA0020D4E7FFF797FAA06B7D
:10424000E16B884213D1FFF7B1FA04F11000049931
:10425000FFF7C4FB2046FFF7ABF800F0DFFA0028B9
:104260009ED13E60BFF34F8FBFF36F8F98E7FFF78C
:104270009DFA2046FFF79CF800F0D0FA90E7000086
:1042800004ED00E02DE9F0471F4690468946040002
:1042900003D0B9F1000F08D011E0502080F311884D
:1042A000BFF34F8FBFF36F8FFEE7206C38B1502004
:1042B00080F31188BFF34F8FBFF36F8FFEE7022F9C
:1042C0000AD1E06B012807D0502080F31188BFF39A
:1042D0004F8FBFF36F8FFEE7FFF7C0FA5020EFF369
:1042E000118680F31188BFF34F8FBFF36F8FA06BE0
:1042F000E16B884206D3022F04D0002086F3118898
:10430000BDE8F08794F94550A06B3A4649462046EF
:10431000FEF767FD681C04D06D1C84F84550012031
:10432000ECE7606A0028FAD004F1240000F03EFABD
:104330000028F4D0B8F1000FF1D00121C8F8001026
:10434000EDE700002DE9F747002683B08A46040018
:1043500003D0BAF1000F08D011E0502080F311888B
:10436000BFF34F8FBFF36F8FFEE7206C38B1502043
:1043700080F31188BFF34F8FBFF36F8FFEE700F01C
:104380005DF9DFF8F4804FF000094FF0805748B92D
:10439000059838B1502080F31188BFF34F8FBFF3D9
:1043A0006F8FFEE7FFF7E2F9A56BC5B151462046D6
:1043B000FEF704FD6D1EA563206950B104F11000E5
:1043C00000F0F4F928B1C8F80070BFF34F8FBFF3C5
:1043D0006F8FFFF7EBF9012006B0BDE8F087059875
:1043E00008B11EB106E0FFF7E1F927E06846FFF7E4
:1043F000E7FA0126FFF7DAF9FFF768FBFFF7B6F9EE
:1044000094F94400401C01D184F8449094F945008B
:10441000401C01D184F84590FFF7C8F905A968460A
:1044200000F07AF8002820460AD0FEF7C1FF00F01D
:10443000F5F92046FEF750FE0028B3D00020CBE768
:10444000FEF74AFE90B104F124000599FFF7C6FA81
:104450002046FEF7ADFF00F0E1F90028A2D1C8F830
:104460000070BFF34F8FBFF36F8F9BE72046FEF7BF
:104470009FFF00F0D3F995E704ED00E02DE9F04748
:1044800090468946040003D0B9F1000F08D011E02E
:10449000502080F31188BFF34F8FBFF36F8FFEE77B
:1044A000206C38B1502080F31188BFF34F8FBFF3D9
:1044B0006F8FFEE7FFF7D2F95020EFF3118680F3FC
:1044C0001188BFF34F8FBFF36F8FA76BF7B194F9CC
:1044D000445049462046FEF771FC7F1EA763681CC6
:1044E00004D06D1C84F84450012010E0206900289D
:1044F000FAD004F1100000F059F90028F4D0B8F116
:10450000000FF1D00121C8F80010EDE7002086F37C
:104510001188BDE8F08700002DE9F0410C46050048
:1045200011D0C4B1FFF722F9174BDA686E68206822
:10453000911B471C17D02F681B6A9F4219D09642C7
:1045400017D8012410E0502080F31188BFF34F8F5B
:10455000BFF36F8FFEE7502080F31188BFF34F8FBA
:10456000BFF36F8FFEE70024FFF720F92046BDE878
:10457000F081884205D9401A20602846FFF720FACA
:10458000F1E700202060DCE7540000202DE9FF5F08
:104590008346DDE90E87994616468A469000FEF767
:1045A0003DFF05001CD05C20FEF738FF040014D04E
:1045B0000020256384F85900CDE90240CDE9008749
:1045C0004B46324651465846FEF7C4FC2046FEF79D
:1045D00061FB012004B0BDE8F09F2846FFF7FAF820
:1045E0004FF0FF30F6E7F0B585B0DDE90B640A9DCA
:1045F000A6B1DCB15C2700972663022684F85960D7
:10460000002604AFCDE90246CDE90057FEF7A2FC33
:104610002046FEF73FFB049805B0F0BD502080F324
:104620001188BFF34F8FBFF36F8FFEE7502080F3E9
:104630001188BFF34F8FBFF36F8FFEE705484169C5
:1046400019B1006B18B1002070470120704702209B
:1046500070470000540000200148C0687047000007
:10466000540000202DE9F0412E4C0027206B28B18A
:10467000A069401CA0613846BDE8F081E668761C60
:10468000E66013D1606B006838B1502080F3118868
:10469000BFF34F8FBFF36F8FFEE7606BA16B61635A
:1046A000A063206A401C2062FEF702FEA06ADFF8C9
:1046B0007880864209D3606B0068A0B1606BC068E7
:1046C000C5686868864211D2A0622068C06A00EBA3
:1046D000800158F82100012800D90127E06900284D
:1046E000C9D00127C7E74FF0FF30EDE7281DFEF7DF
:1046F000E1FFA86A18B105F11800FEF7DBFFE86AD0
:104700002169884200D9206100EB800108EB81001B
:10471000291DFFF71FF8E86A2168C96A8842CAD3D1
:104720000127C8E754000020C403002070B504002E
:104730004FF0000133D01B4D2868844207D0502031
:1047400080F31188BFF34F8FBFF36F8FFEE7206DAB
:1047500038B1401E2065E36CE26A9A421FD040B136
:104760001DE0502080F31188BFF34F8FBFF36F8F90
:10477000FEE7201DFEF79EFFE06CE062C0F138000E
:10478000A061E06A2969884200D92861064900EBE6
:10479000800001EB8000211DFEF7DCFF01210846AF
:1047A00070BD000054000020C403002070B5C06834
:1047B000C46854B104F118000646FEF77BFF144D9F
:1047C000286B50B13146134815E0502080F3118812
:1047D000BFF34F8FBFF36F8FFEE7201DFEF76AFF19
:1047E000E06A2969884200D928610B4900EB800002
:1047F00001EB8000211DFEF7ADFFE06A2968C96A60
:10480000884202D90120E86170BD002070BD00001F
:10481000540000204C080020C40300202DE9F0477C
:104820002C4D00242746286B38B1FEF79FFF286BDC
:10483000401E2863286B40B146E0502080F3118869
:10484000BFF34F8FBFF36F8FFEE7A968224E0120A1
:10485000D1B3A6F5916980463068E0B1F068C468CC
:1048600004F11800FEF726FF201DFEF723FFE06A83
:104870002969884200D9286100EB800109EB810099
:10488000211DFEF767FFE06A2968C96A8842E3D301
:10489000C5F81C80E0E70CB1FEF70AFDAC694CB12D
:1048A0004FEA0806FFF7DEFE00B1EE61641EF9D1A3
:1048B0000020A861E86938B1084901273807086075
:1048C000BFF34F8FBFF36F8FFEF770FF3846BDE821
:1048D000F0870000540000204C08002004ED00E0A8
:1048E0002DE9FC4781461E46174688462C200A9D26
:1048F000FEF794FD04000AD0002084F82800CDE9DA
:10490000005433463A4641464846FEF77BFB204674
:10491000BDE8FC877CB52C26DDE90654009644B141
:10492000022684F82860CDE90054FEF76BFB204690
:104930007CBD502080F31188BFF34F8FBFF36F8F82
:10494000FEE7000010B586B0FEF70CFA114C2068A7
:10495000B8B100200390049005AA04A903A8FEF7AB
:10496000C7FEDDE9032102208DE8070000230AA12C
:104970000B48059AFFF737FE606010B106B00120C2
:1049800010BD502080F31188BFF34F8FBFF36F8F9E
:10499000FEE7000090000020546D72205376630003
:1049A0008D3300082DE9FF411E46134602000A9D83
:1049B0004FF0000016D0144C2768002F0FD0CDE91F
:1049C00000130292062917DAFFF738FE02284FF08B
:1049D00000030FD0002269462068FFF7A3FB04B054
:1049E000BDE8F081502080F31188BFF34F8FBFF3F3
:1049F0006F8FFEE72A46EEE70023324669463846C7
:104A0000FFF740FCEBE7000090000020A84B0008F7
:104A10000000000000000000000000000000000096
:104A2000000200002800000000000000000000005C
:104A3000B44B00080000000000000000000000006F
:104A40000000000000020000200000000000000044
:104A5000000000009C4B0008000000000000000067
:104A6000000000000000000000020000180000002C
:104A70000000000000000000844B0008000000005F
:104A80000000000000000000000000000002000024
:104A9000180000000000000000000000904B00081B
:104AA0000000000000000000000000000000000006
:104AB00000020000180000000000000000000000DC
:104AC000C04B0008000000000000000000000000D3
:104AD000584B00080000000000000000000000002B
:104AE000744B0008000000000000000000000000FF
:104AF0004C4B000800000000540100202000000082
:104B0000684B000800000000740100202000000035
:104B1000010202030405060708090A0B0C0D0E0F1B
:104B2000101000000000000000000102030406074E
:104B3000080900000000010203040400000800004E
:104B40000000000000020001000010004576656EC4
:104B5000745F30310000000042696E6172795F530A
:104B6000656D5F31000000004576656E745F303220
:104B70000000000042696E6172795F53656D5F32BB
:104B8000000000005441534B5F5245414400000077
:104B90005441534B5F574946490000005441534B21
:104BA0005F52554E000000005441534B5F494E493F
:104BB000540000005441534B5F53484F57000000CE
:104BC00054696D65725F6473313330325F72656151
:104BD00064000000F44B000800000020D400000036
:104BE00028010008C84C0008D4000020E42500007B
:104BF0004401000800000000000000000000000068
:104C000000000000000000000000000000000000A4
:104C10000000000000000000000000000000000094
:104C20000000000000000000000000000000000084
:104C30000000000000000000010000001000000063
:104C40000000000000127A000000000000000000D8
:104C50000000000000000000000000000000000054
:104C60000000000000000000000000000000000044
:104C70000000000000000000000000000000000034
:104C80000000000000000000000000000000000024
:104C90000000000000000000000000000000000014
:104CA0000000000000000000000000000000000004
:104CB00000000000000000000000000000000000F4
:084CC000AAAAAAAA0000000044
:04000005080000ED02
:00000001FF
